S01500005348412D315F6F6E5F333238702E737265632D
S11300000C9434000C9451000C9451000C94510045
S11300100C9451000C9451000C9451000C94510018
S11300200C9451000C9451000C9451000C94510008
S11300300C9451000C9451000C9451000C945100F8
S11300400C9451000C9451000C9481060C945100B2
S11300500C9451000C9451000C9451000C945100D8
S11300600C9451000C94510011241FBECFEFD8E022
S1130070DEBFCDBF11E0A0E0B1E0E4E8FEE002C0E5
S113008005900D92AC37B107D9F726E0ACE7B1E0A3
S113009001C01D92A23CB207E1F70E945C000C94DF
S11300A040070C94000044E150E060E070E08EE40E
S11300B091E00E941E070895CF93DF93CDB7DEB77A
S11300C0C45CD1090FB6F894DEBF0FBECDBF0E9449
S11300D0530080E895E20E947A05CE01019620E45F
S11300E0FC0111922A95E9F721E6298322E62A8365
S11300F023E62B8320E82C8328E121962FAF219738
S1130100BE016F5B7F4F0E94240582E091E00E9454
S1130110C50510E00AC0E1E4F0E0EC0FFD1FE10FBB
S1130120F11D80810E94D2051F5F1431A0F38FE07E
S113013091E00E94C50584B1806284B98091BC02BB
S1130140882321F01092BC020E9407068091BE020F
S1130150882379F1F8941092BE02E090BF02F090E7
S1130160C002789401EC10E0F80180818F778083DD
S1130170CE018B5A9F4F0E948703970140E050E0C5
S113018062EC72E0CE018B5A9F4F0E94B603BE010F
S11301906F547F4FCE018B5A9F4F0E944F04F894A7
S11301A01092C0021092BF027894F8018081806896
S11301B080838091BD02882309F4C0CF1092BD02D0
S11301C087E491E00E94C50510E00AC0E1EBF0E08D
S11301D0EC0FFD1FE10FF11D80810E94D2051F5F0E
S11301E01431A0F384E491E00E94C505A7CF2F92B7
S11301F03F924F925F926F927F928F929F92AF92B3
S1130200BF92CF92DF92EF92FF920F931F93CF93FF
S1130210DF93CDB7DEB7A6970FB6F894DEBF0FBE57
S1130220CDBF9B01C12CD12C76019AA389A339C0DF
S1130230F601EE0FFF1FEE0FFF1FE20FF31F808189
S113024090E0A0E0B0E0782F6627552744279181FD
S1130250892F90E0A0E0B0E0DC0199278827842B67
S1130260952BA62BB72B428150E060E070E0762FEF
S1130270652F542F4427842B952BA62BB72B438112
S1130280842BF601EE0FFF1FEE0FFF1FE458FE4F05
S113029080839183A283B3834FEFC41AD40AE40A00
S11302A0F40A50E1C516D104E104F10408F200E1B6
S11302B010E020E030E063C0D901C8010397A10930
S11302C0B109880F991F880F991FFC01E458FE4F4C
S11302D0C080D180E280F380B901A801485051095F
S11302E061097109440F551F440F551FFA01E45861
S11302F0FE4F80819181A281B3818C259D25AE25FD
S1130300BF25B901A8014E50510961097109440F73
S1130310551F440F551FFA01E458FE4F4081518187
S11303206281738184279527A627B727B901A8017D
S11303304051510961097109440F551F440F551F5C
S1130340FA01E458FE4F4081518162817381842710
S11303509527A627B727880F991FAA1FBB1F811DA2
S1130360F801EE0FFF1FEE0FFF1FE458FE4F8083CE
S11303709183A283B3830F5F1F4F2F4F3F4F0035ED
S113038011052105310508F497CF89A19AA1DC0153
S11303904D905D906D907C9013974D865E866F8630
S11303A0788A14964D905D906D907C901797498A49
S11303B05A8A6B8A7C8A18964D905D906D907C90D9
S11303C01B974D8A5E8A6F8A788E1C964D905D903D
S11303D06D907C901F97498E5A8E6B8E7C8E5096B2
S11303E04D905D906D907C9053974D8E5E8E6F8E88
S11303F078A249865A866B867C86498C5A8C6B8C8B
S11304007C8C49825A826B827C822D893E894F89F9
S1130410588D2D833E834F835887C988DA88EB88AB
S1130420FC888D849E84AF84B88800E010E0980135
S11304301C0101C10431110521053105F8F48D8138
S11304409E81AF81B88549815A816B817C818427E3
S11304509527A627B7278C219D21AE21BF2184276C
S11304609527A627B727AC01BD01475656486D47C7
S1130470754A4BA35CA36DA37EA366C00832110525
S113048021053105D8F48D819E81AF81B8858C25F5
S11304909D25AE25BF2549805A806B807C808425AC
S11304A09525A625B725AC01BD014F55544166429B
S11304B071494BA35CA36DA37EA346C00C33110505
S11304C02105310538F58D819E81AF81B88549803C
S11304D05A806B807C8084299529A629B7298C2190
S11304E09D21AE21BF214D815E816F81788544219C
S11304F0552166217721842B952BA62BB72BAC0194
S1130500BD0144525344644E70474BA35CA36DA396
S11305107EA31AC08D819E81AF81B8858C259D25CF
S1130520AE25BF2549805A806B807C808425952523
S1130530A625B725AC01BD014A525E436D497543FA
S11305404BA35CA36DA37EA324013501440C551C6D
S1130550661C771C440C551C661C771C440C551CEB
S1130560661C771C440C551C661C771C440C551CDB
S1130570661C771CB501A401032E3BE176956795B3
S1130580579547953A95D1F7302D44295529662931
S1130590772989859A85AB85BC85480F591F6A1FC1
S11305A07B1FF801EE0FFF1FEE0FFF1FE458FE4FF5
S11305B04080518062807380440D551D661D771DF7
S11305C026013701769467945794479476946794F8
S11305D0579447940B2EBEE1CC0CDD1CEE1CFF1C83
S11305E0BA95D1F7B02D0F5F1F4F2F4F3F4F898121
S11305F09A81AB81BC8189879A87AB87BC878D81BF
S11306009E81AF81B88589839A83AB83BC83D701EC
S1130610C60184299529A629B7298D839E83AF8392
S1130620B887750164018BA09CA0ADA0BEA0840E08
S1130630951EA61EB71E003511052105310508F4C7
S1130640F9CE4D845E846F847888840C951CA61C36
S1130650B71CD1018D929D92AD92BC92139749889B
S11306605A886B887C88C40CD51CE61CF71C14962D
S1130670CD92DD92ED92FC9217978D819E81AF8190
S1130680B8854D885E886F88788C840D951DA61D6D
S1130690B71DF10180879187A287B38789819A81E9
S11306A0AB81BC81498C5A8C6B8C7C8C840D951DE0
S11306B0A61DB71D84879587A687B78789859A85E0
S11306C0AB85BC854D8C5E8C6F8C78A0840D951D9C
S11306D0A61DB71D808B918BA28BB38BA6960FB6EC
S11306E0F894DEBF0FBECDBFDF91CF911F910F9164
S11306F0FF90EF90DF90CF90BF90AF909F908F903E
S11307007F906F905F904F903F902F900895FC01E1
S11307108CE5DF011D928A95E9F781E093E2A5E477
S1130720B7E680839183A283B38389E89BEAADEC27
S1130730BFEE84839583A683B7838EEF9CEDAAEBEB
S1130740B8E980879187A287B38786E794E5A2E317
S1130750B0E184879587A687B78780EF91EEA2EDF5
S1130760B3EC808B918BA28BB38B08958F929F9265
S1130770AF92BF92CF92DF92EF92FF920F931F93AB
S1130780CF93DF93EC018B0149015A014C895D89B8
S11307906E897F89DB01CA01689412F8B695A79522
S11307A0979587951694D1F78F739927AA27BB2716
S11307B075016401CC0CDD1CEE1CFF1CCC0CDD1C93
S11307C0EE1CFF1CCC0CDD1CEE1CFF1C4C0D5D1D37
S11307D06E1D7F1D4C8B5D8B6E8B7F8B4C155D0569
S11307E06E057F0560F4488D598D6A8D7B8D4F5F52
S11307F05F4F6F4F7F4F488F598F6A8F7B8FC88CA5
S1130800D98CEA8CFB8CB501A401032E3DE17695CD
S11308106795579547953A95D1F7302D4C0D5D1D49
S11308206E1D7F1D488F598F6A8F7B8FC12CD12CF1
S1130830760123C0AC01BD014F5F5F4F6F4F7F4F07
S1130840F801EC0DFD1D2081FE01E80FF91F248F36
S1130850403451056105710549F4BE01645E7F4F62
S1130860CE010E94F70040E050E0BA018FEFC81AB1
S1130870D80AE80AF80ADB01CA01C814D904EA0450
S1130880FB04C0F2DF91CF911F910F91FF90EF9085
S1130890DF90CF90BF90AF909F908F9008954F922C
S11308A05F926F927F928F929F92AF92BF92EF92DC
S11308B0FF920F931F93CF93DF93CDB7DEB72897A3
S11308C00FB6F894DEBF0FBECDBF8C017B0140E0B4
S11308D050E0BA0137C081E090E044305105610531
S11308E0710510F080E090E0FC013596EE0FFF1FDB
S11308F0EE0FFF1FE00FF11F80809180A280B38074
S1130900DB01CA0180959095A095B09583709927D5
S1130910880F991F880F991F880F991F240135018B
S113092004C076946794579447948A95D2F7E1E08B
S1130930F0E0EC0FFD1FE40FF51F40824F5F5F4FA7
S11309406F4F7F4F483051056105710520F221E05A
S113095030E040E050E062E671E0C8010E94B60376
S113096009C021E030E040E050E060E071E0C801FF
S11309700E94B603F80184899589A689B789887F7E
S11309809170AA27BB27803C9140A105B10549F786
S113099028E030E040E050E0BE016F5F7F4FC801C7
S11309A00E94B60380E090E0DC0134C09701280F78
S11309B0391FAC01BD017695679557954795769596
S11309C0679557954795440F551F440F551F400F82
S11309D0511FFA0180809180A280B380AC01BD01D7
S11309E0409550956095709543705527440F551F59
S11309F0440F551F440F551F2401350104C076943C
S1130A006794579447944A95D2F7F9014082019626
S1130A10A11DB11D84319105A105B10538F22896B7
S1130A200FB6F894DEBF0FBECDBFDF91CF911F91FB
S1130A300F91FF90EF90BF90AF909F908F907F9019
S1130A406F905F904F900895EF92FF920F931F93D2
S1130A50CF93DF93CDB7DEB7CC55D1090FB6F89459
S1130A60DEBF0FBECDBF7C018B01CE0101960E947B
S1130A708703B701CE0101960E94F70020E02AC047
S1130A80822F90E0D801A80FB91FE22FE695E695D2
S1130A90F0E0EE0FFF1FEE0FFF1F41E050E04C0FA0
S1130AA05D1FE40FF51F4081518162817381809540
S1130AB0909583709927880F991F880F991F880F25
S1130AC0991F04C076956795579547958A95D2F7EF
S1130AD04C932F5F2431A0F2C45ADF4F0FB6F89421
S1130AE0DEBF0FBECDBFDF91CF911F910F91FF905D
S1130AF0EF900895A0E0B0E0880F991FAA1FBB1FD4
S1130B00880F991FAA1FBB1F9C01AD01220F331F21
S1130B10441F551F220F331F441F551F60E074E20A
S1130B2084EF90E00E94FC06215031093093C50007
S1130B302093C40088E98093C10086E08093C200BA
S1130B40789408959091C00095FFFCCF8093C600DF
S1130B500895EF92FF920F931F93CF93DF937C013D
S1130B608B01C0E0D0E007C0F701EC0FFD1F8081CE
S1130B700E94A2052196C017D107B0F3DF91CF914F
S1130B801F910F91FF90EF900895CF93DF93EC01A5
S1130B9003C021960E94A20588818111FACFDF91BA
S1130BA0CF9108951F93CF93DF93CDB7DEB76197AD
S1130BB00FB6F894DEBF0FBECDBF182F81E1E4E677
S1130BC0F1E0DE01119601900D928A95E1F7812FF3
S1130BD082958F70E1E0F0E0EC0FFD1FE80FF11D4E
S1130BE080810E94A2051F70E1E0F0E0EC0FFD1F80
S1130BF0E10FF11D80810E94A20561960FB6F89461
S1130C00DEBF0FBECDBFDF91CF911F9108958091BC
S1130C10BF029091C00201969370892B99F0E091E4
S1130C20BF02F091C0028091C102EE53FD4F808358
S1130C308091BF029091C00201969093C00280936C
S1130C40BF020EC080E094E0E2ECF2E0DF019C0120
S1130C501D9221503040E1F71092BE021092BD0265
S1130C606091BF027091C00282EC92E00E94A905DB
S1130C708091BF029091C002029708F441C0E091B4
S1130C80BF02F091C002E054FD4F80818332B1F481
S1130C90E091BF02F091C002EF53FD4F8081813299
S1130CA069F48091BF029091C00202979093C002B0
S1130CB08093BF0281E08093BE020895E091BF0259
S1130CC0F091C002E054FD4F80818332C9F4E09179
S1130CD0BF02F091C002EF53FD4F8081843281F452
S1130CE08091BF029091C00202979093C0028093BA
S1130CF0BF0281E08093BD0295B180E2892785B966
S1130D0008951F920F920FB60F9211242F933F93C1
S1130D104F935F938F939F93EF93FF938091C600BC
S1130D208D3009F45CC08A3009F459C02091BF02A7
S1130D303091C0022115344048F01092C002109244
S1130D40BF021092BE021092BD0249C02091BF02A0
S1130D503091C002A9014F5F5F4F5093C00240938E
S1130D60BF02F901EE53FD4F80838091BF02909141
S1130D70C0020297A0F1E091BF02F091C002E054DA
S1130D80FD4F8081833259F5E091BF02F091C0029A
S1130D90EF53FD4F8081813269F48091BF029091BD
S1130DA0C00202979093C0028093BF0281E08093B7
S1130DB0BE0215C0E091BF02F091C002EF53FD4F97
S1130DC08081843261F48091BF029091C0020297C5
S1130DD09093C0028093BF0281E08093BD02FF9193
S1130DE0EF919F918F915F914F913F912F910F9030
S1130DF00FBE0F901F901895A1E21A2EAA1BBB1BC1
S1130E00FD010DC0AA1FBB1FEE1FFF1FA217B307D2
S1130E10E407F50720F0A21BB30BE40BF50B661FE8
S1130E20771F881F991F1A9469F7609570958095AC
S1130E3090959B01AC01BD01CF010895DC01A40F85
S1130E40B51F4150504048F0CB01840F951F2E919F
S1130E500E942F0741505040D0F70895262FF9994A
S1130E60FECF92BD81BDF89A019700B4021639F005
S1130E701FBA20BD0FB6F894FA9AF99A0FBE0895D6
S1070E80F894FFCF10
S1130E840000534841312861626329203D20000D4C
S1130E940A4558504543544544203D204139393985
S1130EA433453336343730363831364142413345AD
S1130EB432353731373835304332364339434430A9
S1130EC4443839440D0A00534841313A200001237F
S1130ED4456789ABCDEFFEDCBA9876543210F0E165
S1130EE4D2C3800030313233343536373839414255
S10F0EF4434445460044454255473A003B
S9030000FC
