S01500005348412D315F6F6E5F333238702E737265632D
S11300000C9434000C9451000C9451000C94510045
S11300100C9451000C9451000C9451000C94510018
S11300200C9451000C9451000C9451000C94510008
S11300300C9451000C9451000C9451000C945100F8
S11300400C9451000C9451000C9485000C945100B4
S11300500C9451000C9451000C9451000C945100D8
S11300600C9451000C94510011241FBECFEFD8E022
S1130070DEBFCDBF11E0A0E0B1E0E8E9F1E002C0ED
S113008005900D92A030B107D9F725E0A0E0B1E0CA
S113009001C01D92A130B207E1F70E9453000C94F5
S11300A0CA000C94000080E895E20E945A000E9465
S11300B07D00FDCF82959295907F9827807F982729
S11300C09C0140E050E060E074E284EF90E00E9424
S11300D0A800215031091092C5002093C400E1EC1E
S11300E0F0E088E18083A2ECB0E086E08C9380E2CB
S11300F08C9380E88083789408958091C00085FF74
S1130100FCCF81E48093C60008951F920F920FB62E
S11301100F9211242F938F939F93EF93FF9320912A
S1130120C6008091000190E001960196039730F09B
S1130130E0910001F0E0EF5FFE4F2083FF91EF912B
S11301409F918F912F910F900FBE0F901F90189534
S1130150A1E21A2EAA1BBB1BFD010DC0AA1FBB1FC7
S1130160EE1FFF1FA217B307E407F50720F0A21B39
S1130170B30BE40BF50B661F771F881F991F1A94A6
S113018069F760957095809590959B01AC01BD01D0
S10B0190CF010895F894FFCF9C
S9030000FC
