S01500005348412D315F6F6E5F333238702E737265632D
S11300000C9434000C9451000C9451000C94510045
S11300100C9451000C9451000C9451000C94510018
S11300200C9451000C9451000C9451000C94510008
S11300300C9451000C9451000C9451000C945100F8
S11300400C9451000C9451000C9417010C94510021
S11300500C9451000C9451000C9451000C945100D8
S11300600C9451000C94510011241FBECFEFD8E022
S1130070DEBFCDBF11E0A0E0B1E0E0EEF2E002C0EF
S113008005900D92A431B107D9F725E0A4E1B1E0C0
S113009001C01D92AA31B207E1F70E945C000C94E2
S11300A06E010C94000044E150E060E070E080E0F8
S11300B091E00E944C0108950E94530080E895E26B
S11300C00E947C0084B1806284B9809114018823E9
S11300D021F00E94B8001092140180911501882328
S11300E0A1F38AE191E00E94AB0095B180E28927F7
S11300F085B910921501E9CFA0E0B0E0880F991FEF
S1130100AA1FBB1F880F991FAA1FBB1F9C01AD010B
S1130110220F331F441F551F220F331F441F551F27
S113012060E074E284EF90E00E942A0121503109DA
S11301303093C5002093C40088E98093C10086E011
S11301408093C200789408959091C00095FFFCCFED
S11301508093C6000895CF93DF93EC0103C02196EA
S11301600E94A40088818111FACFDF91CF91089574
S1130170809117019091180101969370892B99F041
S1130180E0911701F091180180911901E65EFE4F8C
S11301908083809117019091180101969093180122
S11301A0809317010EC080E094E0EAE1F1E0DF0102
S11301B09C011D9221503040E1F7109216011092DB
S11301C015018091170190911801029778F1E0913F
S11301D01701F0911801E85EFE4F8081833269F4C3
S11301E0E0911701F0911801E75EFE4F80818132A2
S11301F021F481E0809316010895E0911701F091B4
S11302001801E85EFE4F8081833281F4E09117018A
S1130210F0911801E75EFE4F8081843239F481E069
S11302208093150195B180E2892785B908951F92BD
S11302300F920FB60F9211248F938091C600809372
S1130240190181E0809314018F910F900FBE0F90DC
S11302501F901895A1E21A2EAA1BBB1BFD010DC00D
S1130260AA1FBB1FEE1FFF1FA217B307E407F50762
S113027020F0A21BB30BE40BF50B661F771F881F3E
S1130280991F1A9469F760957095809590959B01D4
S1130290AC01BD01CF010895DC01A40FB51F41508D
S11302A0504048F0CB01840F951F2E910E945D01B0
S11302B041505040D0F70895262FF999FECF92BDB2
S11302C081BDF89A019700B4021639F01FBA20BD17
S11302D00FB6F894FA9AF99A0FBE0895F894FFCFDE
S11302E00123456789ABCDEFFEDCBA987654321012
S10702F0F0E1D2C3A0
S9030000FC
