S01500005348412D315F6F6E5F333238702E737265632D
S11300000C9434000C9451000C9451000C94510045
S11300100C9451000C9451000C9451000C94510018
S11300200C9451000C9451000C9451000C94510008
S11300300C9451000C9451000C9451000C945100F8
S11300400C9451000C9451000C9451000C945100E8
S11300500C9451000C9451000C9451000C945100D8
S11300600C9451000C94510011241FBECFEFD8E022
S1130070DEBFCDBF11E0A0E0B1E0ECE8F1E002C0EA
S113008005900D92A230B107D9F721E0A2E0B1E0CA
S113009001C01D92A230B207E1F70E9453000C94F4
S11300A0C4000C94000080E895E20E946C0084B1C6
S11300B0806284B92FEF89E698E121508040904016
S11300C0E1F700C00000809100010E949A0095B100
S11300D080E2892785B9EECFA0E0B0E0880F991FB0
S11300E0AA1FBB1F880F991FAA1FBB1F9C01AD012C
S11300F0220F331F441F551F220F331F441F551F48
S113010060E074E284EF90E00E94A2002150310983
S11301101092C5002093C400E1ECF0E088E18083F4
S1130120A2ECB0E086E08C9380E28C9380E880833C
S1130130789408959091C00095FFFCCF8F5F8093D1
S1130140C6000895A1E21A2EAA1BBB1BFD010DC017
S1130150AA1FBB1FEE1FFF1FA217B307E407F50773
S113016020F0A21BB30BE40BF50B661F771F881F4F
S1130170991F1A9469F760957095809590959B01E5
S10F0180AC01BD01CF010895F894FFCF3D
S105018C61000C
S9030000FC
