S01500005348412D315F6F6E5F333238702E737265632D
S11300000C9434000C9451000C9451000C94510045
S11300100C9451000C9451000C9451000C94510018
S11300200C9451000C9451000C9451000C94510008
S11300300C9451000C9451000C9451000C945100F8
S11300400C9451000C9451000C9449050C945100EB
S11300500C9451000C9451000C9451000C945100D8
S11300600C9451000C94510011241FBECFEFD8E022
S1130070DEBFCDBF11E0A0E0B1E0E0E4FCE002C0EF
S113008005900D92A033B107D9F726E0A0E3B1E0C3
S113009001C01D92A537B207E1F70E9453000C94EA
S11300A01E060C940000CF93DF93CDB7DEB7C05784
S11300B0D1090FB6F894DEBF0FBECDBF80E895E23C
S11300C00E94D80484B1806284B98091710288232B
S11300D061F1F89410927102E0907202F090730250
S11300E0789401EC10E0F80180818F778083CE0151
S11300F001960E944803970140E050E065E772E0F2
S1130100CE0101960E947703BE01635A7F4FCE0150
S113011001960E941004F8941092730210927202D5
S11301207894F801808180688083809170028823AC
S113013061F21092700282E091E00E94070585E06E
S113014091E00E94070510E00AC0EDE5F0E0EC0F35
S1130150FD1FE10FF11D80810E9414051F5F143102
S1130160A0F382E091E00E94070580E283B9ADCF5D
S11301702F923F924F925F926F927F928F929F92B3
S1130180AF92BF92CF92DF92EF92FF920F931F93A1
S1130190CF93DF93CDB7DEB7A6970FB6F894DEBF43
S11301A00FBECDBF9B01C12CD12C76019AA389A38C
S11301B039C0F601EE0FFF1FEE0FFF1FE20FF31F12
S11301C0808190E0A0E0B0E0782F6627552744278F
S11301D09181892F90E0A0E0B0E0DC019927882785
S11301E0842B952BA62BB72B428150E060E070E066
S11301F0762F652F542F4427842B952BA62BB72BB2
S11302004381842BF601EE0FFF1FEE0FFF1FE05D0D
S1130210FE4F80839183A283B3834FEFC41AD40A21
S1130220E40AF40A50E1C516D104E104F10408F229
S113023000E110E020E030E063C0D901C801039779
S1130240A109B109880F991F880F991FFC01E05D6E
S1130250FE4FC080D180E280F380B901A8014850EC
S1130260510961097109440F551F440F551FFA01C3
S1130270E05DFE4F80819181A281B3818C259D2513
S1130280AE25BF25B901A8014E5051096109710974
S1130290440F551F440F551FFA01E05DFE4F408186
S11302A051816281738184279527A627B727B901D5
S11302B0A8014051510961097109440F551F440FA8
S11302C0551FFA01E05DFE4F4081518162817381C7
S11302D084279527A627B727880F991FAA1FBB1F16
S11302E0811DF801EE0FFF1FEE0FFF1FE05DFE4FB3
S11302F080839183A283B3830F5F1F4F2F4F3F4FA0
S1130300003511052105310508F497CF89A19AA17B
S1130310DC014D905D906D907C9013974D865E86C8
S11303206F86788A14964D905D906D907C901797A7
S1130330498A5A8A6B8A7C8A18964D905D906D9092
S11303407C901B974D8A5E8A6F8A788E1C964D909E
S11303505D906D907C901F97498E5A8E6B8E7C8E2B
S113036050964D905D906D907C9053974D8E5E8E1F
S11303706F8E78A249865A866B867C86498C5A8C05
S11303806B8C7C8C49825A826B827C822D893E895B
S11303904F89588D2D833E834F835887C988DA88C7
S11303A0EB88FC888D849E84AF84B88800E010E0DC
S11303B098011C0101C10431110521053105F8F42E
S11303C08D819E81AF81B88549815A816B817C8101
S11303D084279527A627B7278C219D21AE21BF21ED
S11303E084279527A627B727AC01BD014756564851
S11303F06D47754A4BA35CA36DA37EA366C0083208
S1130400110521053105D8F48D819E81AF81B88510
S11304108C259D25AE25BF2549805A806B807C8024
S113042084259525A625B725AC01BD014F5554411A
S1130430664271494BA35CA36DA37EA346C00C33F3
S113044011052105310538F58D819E81AF81B8856F
S113045049805A806B807C8084299529A629B729F4
S11304608C219D21AE21BF214D815E816F817885D4
S11304704421552166217721842B952BA62BB72B5C
S1130480AC01BD0144525344644E70474BA35CA37A
S11304906DA37EA31AC08D819E81AF81B8858C2502
S11304A09D25AE25BF2549805A806B807C8084259C
S11304B09525A625B725AC01BD014A525E436D4979
S11304C075434BA35CA36DA37EA324013501440CA7
S11304D0551C661C771C440C551C661C771C440C6C
S11304E0551C661C771C440C551C661C771C440C5C
S11304F0551C661C771CB501A401032E3BE17695BF
S11305006795579547953A95D1F7302D4429552944
S11305106629772989859A85AB85BC85480F591F3B
S11305206A1F7B1FF801EE0FFF1FEE0FFF1FE05D38
S1130530FE4F4080518062807380440D551D661DBE
S1130540771D2601370176946794579447947694DF
S11305506794579447940B2EBEE1CC0CDD1CEE1C23
S1130560FF1CBA95D1F7B02D0F5F1F4F2F4F3F4F90
S113057089819A81AB81BC8189879A87AB87BC8743
S11305808D819E81AF81B88589839A83AB83BC8337
S1130590D701C60184299529A629B7298D839E836D
S11305A0AF83B887750164018BA09CA0ADA0BEA0E9
S11305B0840E951EA61EB71E0035110521053105B2
S11305C008F4F9CE4D845E846F847888840C951C7D
S11305D0A61CB71CD1018D929D92AD92BC9213972B
S11305E049885A886B887C88C40CD51CE61CF71C87
S11305F01496CD92DD92ED92FC9217978D819E8197
S1130600AF81B8854D885E886F88788C840D951D80
S1130610A61DB71DF10180879187A287B3878981C1
S11306209A81AB81BC81498C5A8C6B8C7C8C840DF7
S1130630951DA61DB71D84879587A687B7878985CD
S11306409A85AB85BC854D8C5E8C6F8C78A0840DAF
S1130650951DA61DB71D808B918BA28BB38BA6967F
S11306600FB6F894DEBF0FBECDBFDF91CF911F91BF
S11306700F91FF90EF90DF90CF90BF90AF909F903D
S11306808F907F906F905F904F903F902F90089540
S1130690FC018CE5DF011D928A95E9F781E093E284
S11306A0A5E4B7E680839183A283B38389E89BEAB8
S11306B0ADECBFEE84839583A683B7838EEF9CED68
S11306C0AAEBB8E980879187A287B38786E794E588
S11306D0A2E3B0E184879587A687B78780EF91EE80
S11306E0A2EDB3EC808B918BA28BB38B08958F9288
S11306F09F92AF92BF92CF92DF92EF92FF920F93AD
S11307001F93CF93DF93EC018B0149015A014C896C
S11307105D896E897F89DB01CA01689412F8B695F8
S1130720A795979587951694D1F78F739927AA273C
S1130730BB2775016401CC0CDD1CEE1CFF1CCC0C2A
S1130740DD1CEE1CFF1CCC0CDD1CEE1CFF1C4C0D38
S11307505D1D6E1D7F1D4C8B5D8B6E8B7F8B4C15D1
S11307605D056E057F0560F4488D598D6A8D7B8D1E
S11307704F5F5F4F6F4F7F4F488F598F6A8F7B8FCB
S1130780C88CD98CEA8CFB8CB501A401032E3DE105
S113079076956795579547953A95D1F7302D4C0D39
S11307A05D1D6E1D7F1D488F598F6A8F7B8FC12CF5
S11307B0D12C760123C0AC01BD014F5F5F4F6F4F59
S11307C07F4FF801EC0DFD1D2081FE01E80FF91F9C
S11307D0248F403451056105710549F4BE01645EFE
S11307E07F4FCE010E94B80040E050E0BA018FEF85
S11307F0C81AD80AE80AF80ADB01CA01C814D904DD
S1130800EA04FB04C0F2DF91CF911F910F91FF9096
S1130810EF90DF90CF90BF90AF909F908F9008950E
S11308204F925F926F927F928F929F92AF92BF92FC
S1130830EF92FF920F931F93CF93DF93CDB7DEB761
S113084028970FB6F894DEBF0FBECDBF8C017B0195
S113085080E090E0DC012AC084309105A105B10557
S113086030F4F801408D518D628D738D05C0F8010F
S11308704489558966897789E82FE37023E030E05D
S11308802E1B3109220F220F220F04C07695679583
S1130890579547952A95D2F7E1E0F0E0EC0FFD1F5C
S11308A0E80FF91F40830196A11DB11D8830910501
S11308B0A105B10588F221E030E040E050E06CE0B1
S11308C071E0C8010E94770309C021E030E040E0F4
S11308D050E060E071E0C8010E947703F801848968
S11308E09589A689B789887F9170AA27BB27803C00
S11308F09140A105B10549F728E030E040E050E01F
S1130900BE016F5F7F4FC8010E94770380E090E0D3
S1130910DC0134C09701280F391FAC01BD01769565
S11309206795579547957695679557954795440FDD
S1130930551F440F551F400F511FFA0180809180AD
S1130940A280B380AC01BD0140955095609570952F
S113095043705527440F551F440F551F440F551F0F
S11309602401350104C076946794579447944A95BA
S1130970D2F7F90140820196A11DB11D8431910580
S1130980A105B10538F228960FB6F894DEBF0FBE64
S1130990CDBFDF91CF911F910F91FF90EF90BF904A
S11309A0AF909F908F907F906F905F904F9008953D
S11309B0A0E0B0E0880F991FAA1FBB1F880F991FE2
S11309C0AA1FBB1F9C01AD01220F331F441F551FDB
S11309D0220F331F441F551F60E074E284EF90E040
S11309E00E94FC05215031093093C5002093C400B6
S11309F088E98093C10086E08093C20078940895CA
S1130A009091C00095FFFCCF8093C6000895CF93CA
S1130A10DF93EC0103C021960E94000588818111B7
S1130A20FACFDF91CF9108951F93CF93DF93CDB782
S1130A30DEB761970FB6F894DEBF0FBECDBF182F97
S1130A4081E1EEE0F1E0DE01119601900D928A95CC
S1130A50E1F7812F82958F70E1E0F0E0EC0FFD1F4C
S1130A60E80FF11D80810E9400051F70E1E0F0E0B5
S1130A70EC0FFD1FE10FF11D80810E9400056196BE
S1130A800FB6F894DEBF0FBECDBFDF91CF911F919B
S1130A9008951F920F920FB60F9211242F933F9334
S1130AA04F935F936F937F938F939F93AF93BF9372
S1130AB0EF93FF938091C6008D3011F08A3079F462
S1130AC08091C00085FF03C08DE08093C6008091B3
S1130AD0C00085FF80C08AE08093C6007CC0883057
S1130AE011F08F37B1F48091C00085FF03C088E016
S1130AF08093C6008091C00085FF03C080E280938C
S1130B00C6008091C00085FF66C088E08093C6005F
S1130B1062C09091C00095FD8093C600209172023E
S1130B20309173022115344068F08FE191E00E9406
S1130B3007051092730210927202109271021092C1
S1130B40700249C02091720230917302A9014F5F73
S1130B505F4F5093730240937202F901EB58FD4FBB
S1130B60808380917202909173020297A0F1E091C8
S1130B707202F0917302ED58FD4F8081833259F572
S1130B80E0917202F0917302EC58FD4F8081813242
S1130B9069F48091720290917302029790937302A8
S1130BA08093720281E08093710215C0E091720219
S1130BB0F0917302EC58FD4F8081843261F480918E
S1130BC0720290917302029790937302809372025F
S1130BD081E080937002FF91EF91BF91AF919F915B
S1130BE08F917F916F915F914F913F912F910F90D2
S1130BF00FBE0F901F901895A1E21A2EAA1BBB1BC3
S1130C00FD010DC0AA1FBB1FEE1FFF1FA217B307D4
S1130C10E407F50720F0A21BB30BE40BF50B661FEA
S1130C20771F881F991F1A9469F7609570958095AE
S1130C3090959B01AC01BD01CF010895F894FFCFBD
S1130C4000000D0A00534841313A20008000303141
S1130C50323334353637383941424344454600420D
S1130C607566666572206F766572666C6F770000D4
S9030000FC
