S01500005348412D315F6F6E5F333238702E737265632D
S11300000C9434000C9451000C9451000C94510045
S11300100C9451000C9451000C9451000C94510018
S11300200C9451000C9451000C9451000C94510008
S11300300C9451000C9451000C9451000C945100F8
S11300400C9451000C9451000C947E060C945100B5
S11300500C9451000C9451000C9451000C945100D8
S11300600C9451000C94510011241FBECFEFD8E022
S1130070DEBFCDBF11E0A0E0B1E0EEEAFDE002C0DA
S113008005900D92AC33B107D9F725E0ACE3B1E0AC
S113009001C01D92A234B207E1F70E945C000C94E7
S11300A0D5060C94000044E150E060E070E08DE07F
S11300B091E00E94B3060895CF93DF93CDB7DEB7E6
S11300C0C057D1090FB6F894DEBF0FBECDBF0E9452
S11300D0530080E895E20E94AF0584B1806284B940
S11300E080913C01882321F010923C010E9420065B
S11300F080913E01882339F1F89410923E0182E008
S113010091E00E94DE05CE0101960E94170423E0CF
S113011030E040E050E062E071E0CE0101960E94E0
S11301204104BE01635A7F4FCE0101960E94DA0456
S113013080E094E0E2E4F1E0DF019C011D922150B3
S11301403040E1F7789480913D01882349F2109280
S11301503D0186E091E00E94DE0510E00DC0EDE572
S1130160F0E0EC0FFD1FE10FF11D80810E94EB0513
S113017080E20E94D7051F5F143188F38AE00E9451
S1130180D70595B180E2892785B9AACF2F923F92EE
S11301904F925F926F927F928F929F92AF92BF9293
S11301A0CF92DF92EF92FF920F931F93CF93DF933F
S11301B0CDB7DEB7C456D1400FB6F894DEBF0FBE3C
S11301C0CDBF1C01C12CD12C760132C0F601EE0F3B
S11301D0FF1FEE0FFF1FE60FF71F808190E05527EA
S11301E04427218130E099278827842B952B22816D
S11301F030E0322F2227822B932B2381822BF6018E
S1130200EE0FFF1FEE0FFF1F44244394512C4C0E9E
S11302105D1EE40DF51D092E000CAA0BBB0B80839B
S11302209183A283B3832FEFC21AD20AE20AF20A9D
S113023030E1C316D104E104F10440F2C12CD12C05
S113024076016894C4F887C0D701C6010397A10951
S1130250B109880F991F880F991FE1E0F0E0EC0FB6
S1130260FD1FE80FF91F0081118122813381B7013D
S1130270A6014850510961097109440F551F440FE3
S1130280551FE1E0F0E0EC0FFD1FE40FF51F808146
S11302909181A281B38180279127A227B327B70137
S11302A0A6014E50510961097109440F551F440FAD
S11302B0551FE1E0F0E0EC0FFD1FE40FF51F008196
S11302C0118122813381082719272A273B27B70167
S11302D0A6014051510961097109440F551F440F8A
S11302E0551FE1E0F0E0EC0FFD1FE40FF51F8081E6
S11302F09181A281B3814C015D01880C991CAA1CD7
S1130300BB1C80269126A226B326AC01BD0144273E
S113031077FD4395552766277727D901C801842798
S11303209527A627B72788299929AA29BB29F60141
S1130330EE0FFF1FEE0FFF1F41E050E04C0F5D1F5B
S1130340E40FF51F80839183A283B3835FEFC51A03
S1130350D50AE50AF50A60E5C616D104E104F104FC
S113036008F472CFD1018D919D910D90BC91A02D77
S1130370C35BDE4F88839983AA83BB83CD54D1406A
S1130380D10114964D905D906D907C901797CF5A43
S1130390DE4F488259826A827B82C155D1401896C9
S11303A04D905D906D907C901B97CB5ADE4F4882A8
S11303B059826A827B82C555D1401C964D905D90CE
S11303C06D907C901F97C75ADE4F488259826A828B
S11303D07B82C955D14050964D905D906D907C9034
S11303E05397C35ADE4F488259826A827B82CD5525
S11303F0D140C75BDE4F488259826A827B82C954EE
S1130400D140C75ADE4F488059806A807B80C955E5
S1130410D140CF5BDE4F488259826A827B82C154CD
S1130420D140CB5ADE4F288139814A815B81C55541
S1130430D140CB5BDE4F288339834A835B83C55429
S1130440D140CF5ADE4FC880D980EA80FB80C155A5
S1130450D140C35BDE4F88809980AA80BB80CD5495
S1130460D14000E010E0980155C104311105210587
S1130470310558F5CB5BDE4F88819981AA81BB8118
S1130480C554D140CF5BDE4F488159816A817B815D
S1130490C154D14084279527A627B7278C219D21B5
S11304A0AE21BF2184279527A627B727AC01BD011C
S11304B0475656486D47754ACF59DE4F488359838E
S11304C06A837B83C156D1408EC008321105210551
S11304D0310538F5CB5BDE4F88819981AA81BB81D8
S11304E0C554D1408C259D25AE25BF25CF5BDE4F5D
S11304F0488059806A807B80C154D14084259525E9
S1130500A625B725AC01BD014F555441664271493A
S1130510CF59DE4F488359836A837B83C156D140C8
S113052062C00C33110521053105B8F5CB5BDE4FF4
S113053088819981AA81BB81C554D140CF5BDE4FAC
S1130540488059806A807B80C154D1408429952990
S1130550A629B7298C219D21AE21BF21CB5BDE4F7B
S1130560488159816A817B81C554D14044215521F8
S113057066217721842B952BA62BB72BAC01BD01CB
S113058044525344644E7047CF59DE4F48835983D5
S11305906A837B83C156D14026C0CB5BDE4F888102
S11305A09981AA81BB81C554D1408C259D25AE2556
S11305B0BF25CF5BDE4F488059806A807B80C15461
S11305C0D14084259525A625B725AC01BD014A5205
S11305D05E436D497543CF59DE4F488359836A831F
S11305E07B83C156D14024013501440C551C661C43
S11305F0771C440C551C661C771C440C551C661C4B
S1130600771C440C551C661C771C440C551C661C3A
S1130610771CB501A401032E3BE1769567955795A8
S113062047953A95D1F7302D4429552966297729DC
S1130630C75BDE4F88819981AA81BB81C954D140AF
S1130640480F591F6A1F7B1FF801EE0FFF1FEE0FA3
S1130650FF1FA1E0B0E0AC0FBD1FEA0FFB1F4080FD
S1130660518062807380440D551D661D771D2601DF
S11306703701769467945794479476946794579483
S113068047940B2EBEE1CC0CDD1CEE1CFF1CBA956E
S1130690D1F7B02D0F5F1F4F2F4F3F4FCF5BDE4F72
S11306A088819981AA81BB81C154D140C75BDE4F47
S11306B088839983AA83BB83C954D140CB5BDE4F23
S11306C088819981AA81BB81C554D140CF5BDE4F1B
S11306D088839983AA83BB83C154D140D701C601BF
S11306E084299529A629B729CB5BDE4F8883998372
S11306F0AA83BB83C554D14075016401CF59DE4F31
S113070088809980AA80BB80C156D140840E951EF2
S1130710A61EB71E003511052105310508F4A5CE26
S1130720C35BDE4F488059806A807B80CD54D140C2
S1130730840C951CA61CB71CD1018D929D92AD9280
S1130740BC921397CF5ADE4F488059806A807B80D1
S1130750C155D140C40CD51CE61CF71C1496CD928F
S1130760DD92ED92FC921797CB5BDE4F88819981E5
S1130770AA81BB81C554D140CB5ADE4F48805980F1
S11307806A807B80C555D140840D951DA61DB71D7B
S1130790F10180879187A287B387CF5BDE4F888181
S11307A09981AA81BB81C154D140C75ADE4F488088
S11307B059806A807B80C955D140840D951DA61D42
S11307C0B71D84879587A687B787C75BDE4F888167
S11307D09981AA81BB81C954D140C35ADE4F488054
S11307E059806A807B80CD55D140840D951DA61D0E
S11307F0B71D808B918BA28BB38BCC59DE4F0FB678
S1130800F894DEBF0FBECDBFDF91CF911F910F9142
S1130810FF90EF90DF90CF90BF90AF909F908F901C
S11308207F906F905F904F903F902F900895FC01C0
S113083081E093E2A5E4B7E680839183A283B38346
S113084089E89BEAADECBFEE84839583A683B783E6
S11308508EEF9CEDAAEBB8E980879187A287B387D6
S113086086E794E5A2E3B0E184879587A687B787F6
S113087080EF91EEA2EDB3EC808B918BA28BB38BC6
S113088008958F929F92AF92BF92CF92DF92EF9290
S1130890FF920F931F93CF93DF93EC018B014901D8
S11308A05A014C895D896E897F89DB01CA0168948C
S11308B012F8B695A795979587951694D1F78F73E7
S11308C09927AA27BB2775016401CC0CDD1CEE1CFB
S11308D0FF1CCC0CDD1CEE1CFF1CCC0CDD1CEE1C28
S11308E0FF1C4C0D5D1D6E1D7F1D4C8B5D8B6E8B37
S11308F07F8B4C155D056E057F0560F4488D598D21
S11309006A8D7B8D4F5F5F4F6F4F7F4F488F598F3D
S11309106A8F7B8FC88CD98CEA8CFB8CB501A401BF
S1130920032E3DE176956795579547953A95D1F70E
S1130930302D4C0D5D1D6E1D7F1D488F598F6A8FA4
S11309407B8FC12CD12C760123C0AC01BD014F5F3C
S11309505F4F6F4F7F4FF801EC0DFD1D2081FE01AD
S1130960E80FF91F248F403451056105710549F4DE
S1130970BE01645E7F4FCE010E94C60040E050E09D
S1130980BA018FEFC81AD80AE80AF80ADB01CA01CB
S1130990C814D904EA04FB04C0F2DF91CF911F917B
S11309A00F91FF90EF90DF90CF90BF90AF909F900A
S11309B08F9008954F925F926F927F928F929F9241
S11309C0AF92BF92EF92FF920F931F93CF93DF9357
S11309D0CDB7DEB728970FB6F894DEBF0FBECDBFF4
S11309E08C017B0140E050E0BA0137C081E090E027
S11309F0443051056105710510F080E090E0FC0180
S1130A003596EE0FFF1FEE0FFF1FE00FF11F8080E2
S1130A109180A280B380DB01CA0180959095A09556
S1130A20B09583709927880F991F880F991F880F95
S1130A30991F2401350104C0769467945794479410
S1130A408A95D2F7E1E0F0E0EC0FFD1FE40FF51F0B
S1130A5040824F5F5F4F6F4F7F4F483051056105B4
S1130A60710520F221E030E040E050E061E271E005
S1130A70C8010E94410409C021E030E040E050E098
S1130A8060E071E0C8010E944104F80184899589FD
S1130A90A689B789887F9170AA27BB27803C91409B
S1130AA0A105B10549F728E030E040E050E0BE017F
S1130AB06F5F7F4FC8010E94410480E090E0DC0139
S1130AC034C09701280F391FAC01BD017695679595
S1130AD0579547957695679557954795440F551FB4
S1130AE0440F551F400F511FFA0180809180A2804E
S1130AF0B380AC01BD0140955095609570954370ED
S1130B005527440F551F440F551F440F551F2401EB
S1130B10350104C076946794579447944A95D2F764
S1130B20F90140820196A11DB11D84319105A105F1
S1130B30B10538F228960FB6F894DEBF0FBECDBFCC
S1130B40DF91CF911F910F91FF90EF90BF90AF90E5
S1130B509F908F907F906F905F904F900895A0E04A
S1130B60B0E0880F991FAA1FBB1F880F991FAA1FE7
S1130B70BB1F9C01AD01220F331F441F551F220FC1
S1130B80331F441F551F60E074E284EF90E00E941D
S1130B909106215031093093C5002093C40088E99F
S1130BA08093C10086E08093C20078940895909168
S1130BB0C00095FFFCCF8093C6000895CF93DF93C8
S1130BC0EC0103C021960E94D70588818111FACFD8
S1130BD0DF91CF9108951F93CF93DF93CDB7DEB705
S1130BE061970FB6F894DEBF0FBECDBF182F81E119
S1130BF0E3E2F1E0DE01119601900D928A95E1F7AE
S1130C00812F82958F70E1E0F0E0EC0FFD1FE80F7B
S1130C10F11D80810E94D7051F70E1E0F0E0EC0F28
S1130C20FD1FE10FF11D80810E94D70561960FB66B
S1130C30F894DEBF0FBECDBFDF91CF911F91089511
S1130C4080913F019091400101969370892B91F01E
S1130C5080913F01909140019C012F5F3F4F309361
S1130C60400120933F0120914101FC01EE5BFE4FC6
S1130C7020830EC080E094E0E2E4F1E0DF019C0117
S1130C801D9221503040E1F710923E0110923D0137
S1130C9080913F0190914001029778F1E0913F01EA
S1130CA0F0914001E05CFE4F8081833269F4E09171
S1130CB03F01F0914001EF5BFE4F8081813221F4CE
S1130CC081E080933E010895E0913F01F09140015D
S1130CD0E05CFE4F8081833281F4E0913F01F0912A
S1130CE04001EF5BFE4F8081843239F481E08093D0
S1130CF03D0195B180E2892785B908951F920F922D
S1130D000FB60F9211248F938091C60080934101F6
S1130D1081E080933C018F910F900FBE0F901F9044
S1130D201895A1E21A2EAA1BBB1BFD010DC0AA1F18
S1130D30BB1FEE1FFF1FA217B307E407F50720F040
S1130D40A21BB30BE40BF50B661F771F881F991FBB
S1130D501A9469F760957095809590959B01AC0104
S1130D60BD01CF010895DC01A40FB51F41505040CF
S1130D7048F0CB01840F951F2E910E94C406415068
S1130D805040D0F70895262FF999FECF92BD81BD2A
S1130D90F89A019700B4021639F01FBA20BD0FB6B5
S1110DA0F894FA9AF99A0FBE0895F894FFCFCA
S1130DAE000061626300534841313A20000123453B
S1130DBE6789ABCDEFFEDCBA9876543210F0E1D2EF
S1130DCEC3800030313233343536373839414243FB
S10F0DDE4445460044454255473A000095
S9030000FC
