S01500005348412D315F6F6E5F333238702E737265632D
S11300000C9434000C9451000C9451000C94510045
S11300100C9451000C9451000C9451000C94510018
S11300200C9451000C9451000C9451000C94510008
S11300300C9451000C9451000C9451000C945100F8
S11300400C9451000C9451000C9428050C9451000C
S11300500C9451000C9451000C9451000C945100D8
S11300600C9451000C94510011241FBECFEFD8E022
S1130070DEBFCDBF11E0A0E0B1E0EAE4FBE002C0E6
S113008005900D92A632B107D9F726E0A6E2B1E0B9
S113009001C01D92AB36B207E1F70E9453000C94E5
S11300A0A3050C940000CF93DF93CDB7DEB7C05700
S11300B0D1090FB6F894DEBF0FBECDBF84B1806204
S11300C084B980916702882361F1F89410926702E1
S11300D0E0906802F0906902789401EC10E0F80175
S11300E080818F778083CE0101960E94420397011D
S11300F040E050E06BE672E0CE0101960E9471038D
S1130100BE01635A7F4FCE0101960E940A04F894FF
S113011010926902109268027894F80180818068D4
S1130120808380916602882361F21092660282E0E5
S113013091E00E94E60410E00AC0EDE5F0E0EC0F67
S1130140FD1FE10FF11D80810E94F3041F5F143134
S1130150A0F389E091E00E94E60495B180E289274A
S113016085B9AFCF2F923F924F925F926F927F9259
S11301708F929F92AF92BF92CF92DF92EF92FF92B3
S11301800F931F93CF93DF93CDB7DEB7A6970FB628
S1130190F894DEBF0FBECDBF9B01C12CD12C7601DC
S11301A09AA389A339C0F601EE0FFF1FEE0FFF1FBC
S11301B0E20FF31F808190E0A0E0B0E0782F662783
S11301C0552744279181892F90E0A0E0B0E0DC011D
S11301D099278827842B952BA62BB72B428150E097
S11301E060E070E0762F652F542F4427842B952BE5
S11301F0A62BB72B4381842BF601EE0FFF1FEE0FC6
S1130200FF1FEA5DFE4F80839183A283B3834FEF88
S1130210C41AD40AE40AF40A50E1C516D104E1046C
S1130220F10408F200E110E020E030E063C0D901FD
S1130230C8010397A109B109880F991F880F991F55
S1130240FC01EA5DFE4FC080D180E280F380B901F9
S1130250A8014850510961097109440F551F440F01
S1130260551FFA01EA5DFE4F80819181A281B3811D
S11302708C259D25AE25BF25B901A8014E505109F5
S113028061097109440F551F440F551FFA01EA5DB6
S1130290FE4F408151816281738184279527A6276F
S11302A0B727B901A8014051510961097109440FE7
S11302B0551F440F551FFA01EA5DFE4F40815181DD
S11302C06281738184279527A627B727880F991FF2
S11302D0AA1FBB1F811DF801EE0FFF1FEE0FFF1FAA
S11302E0EA5DFE4F80839183A283B3830F5F1F4F28
S11302F02F4F3F4F003511052105310508F497CFE5
S113030089A19AA1DC014D905D906D907C9013972A
S11303104D865E866F86788A14964D905D906D90BA
S11303207C901797498A5A8A6B8A7C8A18964D90D2
S11303305D906D907C901B974D8A5E8A6F8A788E53
S11303401C964D905D906D907C901F97498E5A8EAF
S11303506B8E7C8E50964D905D906D907C905397F3
S11303604D8E5E8E6F8E78A249865A866B867C8609
S1130370498C5A8C6B8C7C8C49825A826B827C822D
S11303802D893E894F89588D2D833E834F8358870D
S1130390C988DA88EB88FC888D849E84AF84B88809
S11303A000E010E098011C0101C104311105210590
S11303B03105F8F48D819E81AF81B88549815A81D8
S11303C06B817C8184279527A627B7278C219D21C3
S11303D0AE21BF2184279527A627B727AC01BD01ED
S11303E0475656486D47754A4BA35CA36DA37EA33D
S11303F066C00832110521053105D8F48D819E812E
S1130400AF81B8858C259D25AE25BF2549805A80AE
S11304106B807C8084259525A625B725AC01BD017C
S11304204F555441664271494BA35CA36DA37EA30F
S113043046C00C3311052105310538F58D819E81A7
S1130440AF81B88549805A806B807C808429952946
S1130450A629B7298C219D21AE21BF214D815E8122
S11304606F8178854421552166217721842B952B32
S1130470A62BB72BAC01BD0144525344644E7047C4
S11304804BA35CA36DA37EA31AC08D819E81AF8113
S1130490B8858C259D25AE25BF2549805A806B8063
S11304A07C8084259525A625B725AC01BD014A523B
S11304B05E436D4975434BA35CA36DA37EA32401E6
S11304C03501440C551C661C771C440C551C661CD9
S11304D0771C440C551C661C771C440C551C661C6C
S11304E0771C440C551C661C771CB501A401032E13
S11304F03BE176956795579547953A95D1F7302D19
S1130500442955296629772989859A85AB85BC852F
S1130510480F591F6A1F7B1FF801EE0FFF1FEE0FD4
S1130520FF1FEA5DFE4F4080518062807380440D5E
S1130530551D661D771D26013701769467945794DF
S1130540479476946794579447940B2EBEE1CC0C51
S1130550DD1CEE1CFF1CBA95D1F7B02D0F5F1F4FA9
S11305602F4F3F4F89819A81AB81BC8189879A87BC
S1130570AB87BC878D819E81AF81B88589839A833F
S1130580AB83BC83D701C60184299529A629B72941
S11305908D839E83AF83B887750164018BA09CA073
S11305A0ADA0BEA0840E951EA61EB71E0035110573
S11305B02105310508F4F9CE4D845E846F84788872
S11305C0840C951CA61CB71CD1018D929D92AD92F2
S11305D0BC92139749885A886B887C88C40CD51CB4
S11305E0E61CF71C1496CD92DD92ED92FC921797BF
S11305F08D819E81AF81B8854D885E886F88788CA7
S1130600840D951DA61DB71DF10180879187A287D2
S1130610B38789819A81AB81BC81498C5A8C6B8C5C
S11306207C8C840D951DA61DB71D84879587A68790
S1130630B78789859A85AB85BC854D8C5E8C6F8C1C
S113064078A0840D951DA61DB71D808B918BA28B60
S1130650B38BA6960FB6F894DEBF0FBECDBFDF9165
S1130660CF911F910F91FF90EF90DF90CF90BF90AB
S1130670AF909F908F907F906F905F904F903F903E
S11306802F900895FC018CE5DF011D928A95E9F70E
S113069081E093E2A5E4B7E680839183A283B383E8
S11306A089E89BEAADECBFEE84839583A683B78388
S11306B08EEF9CEDAAEBB8E980879187A287B38778
S11306C086E794E5A2E3B0E184879587A687B78798
S11306D080EF91EEA2EDB3EC808B918BA28BB38B68
S11306E008958F929F92AF92BF92CF92DF92EF9232
S11306F0FF920F931F93CF93DF93EC018B0149017A
S11307005A014C895D896E897F89DB01CA0168942D
S113071012F8B695A795979587951694D1F78F7388
S11307209927AA27BB2775016401CC0CDD1CEE1C9C
S1130730FF1CCC0CDD1CEE1CFF1CCC0CDD1CEE1CC9
S1130740FF1C4C0D5D1D6E1D7F1D4C8B5D8B6E8BD8
S11307507F8B4C155D056E057F0560F4488D598DC2
S11307606A8D7B8D4F5F5F4F6F4F7F4F488F598FDF
S11307706A8F7B8FC88CD98CEA8CFB8CB501A40161
S1130780032E3DE176956795579547953A95D1F7B0
S1130790302D4C0D5D1D6E1D7F1D488F598F6A8F46
S11307A07B8FC12CD12C760123C0AC01BD014F5FDE
S11307B05F4F6F4F7F4FF801EC0DFD1D2081FE014F
S11307C0E80FF91F248F403451056105710549F480
S11307D0BE01645E7F4FCE010E94B20040E050E053
S11307E0BA018FEFC81AD80AE80AF80ADB01CA016D
S11307F0C814D904EA04FB04C0F2DF91CF911F911D
S11308000F91FF90EF90DF90CF90BF90AF909F90AB
S11308108F9008954F925F926F927F928F929F92E2
S1130820AF92BF92EF92FF920F931F93CF93DF93F8
S1130830CDB7DEB728970FB6F894DEBF0FBECDBF95
S11308408C017B0140E050E0BA0137C081E090E0C8
S1130850443051056105710510F080E090E0FC0121
S11308603596EE0FFF1FEE0FFF1FE00FF11F808084
S11308709180A280B380DB01CA0180959095A095F8
S1130880B09583709927880F991F880F991F880F37
S1130890991F2401350104C07694679457944794B2
S11308A08A95D2F7E1E0F0E0EC0FFD1FE40FF51FAD
S11308B040824F5F5F4F6F4F7F4F48305105610556
S11308C0710520F221E030E040E050E06CE071E09E
S11308D0C8010E94710309C021E030E040E050E00B
S11308E060E071E0C8010E947103F8018489958970
S11308F0A689B789887F9170AA27BB27803C91403D
S1130900A105B10549F728E030E040E050E0BE0120
S11309106F5F7F4FC8010E94710380E090E0DC01AB
S113092034C09701280F391FAC01BD017695679536
S1130930579547957695679557954795440F551F55
S1130940440F551F400F511FFA0180809180A280EF
S1130950B380AC01BD01409550956095709543708E
S11309605527440F551F440F551F440F551F24018D
S1130970350104C076946794579447944A95D2F706
S1130980F90140820196A11DB11D84319105A10593
S1130990B10538F228960FB6F894DEBF0FBECDBF6E
S11309A0DF91CF911F910F91FF90EF90BF90AF9087
S11309B09F908F907F906F905F904F90089590914B
S11309C0C00095FFFCCF8093C6000895CF93DF93BA
S11309D0EC0103C021960E94DF0488818111FACFC3
S11309E0DF91CF9108951F93CF93DF93CDB7DEB7F7
S11309F061970FB6F894DEBF0FBECDBF182F81E10B
S1130A00EEE0F1E0DE01119601900D928A95E1F796
S1130A10812F82958F70E1E0F0E0EC0FFD1FE80F6D
S1130A20F11D80810E94DF041F70E1E0F0E0EC0F13
S1130A30FD1FE10FF11D80810E94DF0461960FB656
S1130A40F894DEBF0FBECDBFDF91CF911F91089503
S1130A501F920F920FB60F9211242F933F934F932F
S1130A605F938F939F93EF93FF938091C6008D3094
S1130A7009F45CC08A3009F459C0209168023091AD
S1130A8069022115344048F01092690210926802FC
S1130A90109267021092660249C020916802309158
S1130AA06902A9014F5F5F4F509369024093680246
S1130AB0F901E559FD4F80838091680290916902A4
S1130AC00297A0F1E0916802F0916902E759FD4FA5
S1130AD08081833259F5E0916802F0916902E65908
S1130AE0FD4F8081813269F480916802909169029E
S1130AF00297909369028093680281E08093670271
S1130B0015C0E0916802F0916902E659FD4F8081B9
S1130B10843261F480916802909169020297909303
S1130B2069028093680281E080936602FF91EF91ED
S1130B309F918F915F914F913F912F910F900FBE95
S10D0B400F901F901895F894FFCF52
S1130B4A0000534841313A20000D0A008000303138
S1130B5A3233343536373839414243444546004402
S1090B6A454255473A0024
S9030000FC
