S01500005348412D315F6F6E5F333238702E737265632D
S11300000C9434000C9449000C9449000C9449005D
S11300100C9449000C9449000C9449000C94490038
S11300200C9449000C9449000C9449000C94490028
S11300300C9449000C9449000C9449000C94490018
S11300400C9449000C9449000C9449000C94490008
S11300500C9449000C9449000C9449000C944900F8
S11300600C9449000C94490011241FBECFEFD8E032
S1130070DEBFCDBF11E0A0E0B1E0E2E0F2E002C0FB
S113008005900D92A831B107D9F70E9454000C9441
S1130090FF000C94000044E150E060E070E084E074
S11300A091E00E94DD0008950E944B0080E895E2F3
S11300B00E94710084B1806284B995B180E289277D
S11300C085B92FEF89E698E1215080409040E1F70F
S11300D000C0000063E070E080E091E00E94A000B6
S11300E0ECCFA0E0B0E0880F991FAA1FBB1F880FB8
S11300F0991FAA1FBB1F9C01AD01220F331F441F70
S1130100551F220F331F441F551F60E074E284EF14
S113011090E00E94BB00215031093093C500209328
S1130120C4008EE18093C10086E28093C20078947B
S113013008959091C00095FFFCCF8093C600089568
S1130140EF92FF920F931F93CF937C018B01C0E03A
S113015007C0F701E80FF91F80810E949900CF5F63
S11301608C2F90E080179107A0F3CF911F910F91EE
S1130170FF90EF900895A1E21A2EAA1BBB1BFD016C
S11301800DC0AA1FBB1FEE1FFF1FA217B307E40772
S1130190F50720F0A21BB30BE40BF50B661F771FCA
S11301A0881F991F1A9469F76095709580959095AA
S11301B09B01AC01BD01CF010895DC01A40FB51F63
S11301C04150504048F0CB01840F951F2E910E945E
S11301D0EE0041505040D0F70895262FF999FECFF4
S11301E092BD81BDF89A019700B4021639F01FBA86
S11301F020BD0FB6F894FA9AF99A0FBE0895F894B0
S1050200FFCF2A
S1130202313233340123456789ABCDEFFEDCBA9832
S10B021276543210F0E1D2C36E
S9030000FC
