S01500005348412D315F6F6E5F333238702E737265632D
S11300000C9434000C9446000C9446000C94460066
S11300100C9446000C9446000C9446000C94460044
S11300200C9446000C9446000C9446000C94460034
S11300300C9446000C9446000C9446000C94460024
S11300400C9446000C9446000C9449000C94460011
S11300500C9446000C9446000C9446000C94460004
S11300600C9446000C94460011241FBECFEFD8E038
S1130070DEBFCDBF25E0A0E0B1E001C01D92A530F8
S1130080B207E1F70E9448000C9480000C94000031
S1130090FFCF1F920F920FB60F9211242F933F930D
S11300A08F939F93EF93FF938091C60080930405F1
S11300B0E0910001F091010180910405EC5FFE4F95
S11300C0808320910001309101018091020190917F
S11300D003012817390748F4809100019091010128
S11300E001969093010180930001FF91EF919F91FC
S11300F08F913F912F910F900FBE0F901F901895E5
S1070100F894FFCF9D
S9030000FC
