S01500005348412D315F6F6E5F333238702E737265632D
S11300000C9434000C9446000C9446000C94460066
S11300100C9446000C9446000C9446000C94460044
S11300200C9446000C9446000C9446000C94460034
S11300300C9446000C9446000C9446000C94460024
S11300400C9446000C9446000C9449000C94460011
S11300500C9446000C9446000C9446000C94460004
S11300600C9446000C94460011241FBECFEFD8E038
S1130070DEBFCDBF25E0A0E0B1E001C01D92A130FC
S1130080B207E1F70E9448000C9468000C94000049
S1130090FFCF1F920F920FB60F9211248F93EF93FD
S11300A0FF93E0910001F0E08091C600EF5FFE4F06
S11300B0808380910001809100018F5F8093000113
S11300C0FF91EF918F910F900FBE0F901F90189595
S10700D0F894FFCFCE
S9030000FC
