S01500005348412D315F6F6E5F333238702E737265632D
S11300000C9434000C9451000C9451000C94510045
S11300100C9451000C9451000C9451000C94510018
S11300200C9451000C9451000C9451000C94510008
S11300300C9451000C9451000C9451000C945100F8
S11300400C9451000C9451000C9402050C94510032
S11300500C9451000C9451000C9451000C945100D8
S11300600C9451000C94510011241FBECFEFD8E022
S1130070DEBFCDBF11E0A0E0B1E0E6EBFAE002C0E4
S113008005900D92AE37B107D9F726E0AEE7B1E09F
S113009001C01D92A43CB207E1F70E945B000C94DE
S11300A059050C94000044E150E060E070E081E503
S11300B091E00C943705CF93DF93CDB7DEB7C450EE
S11300C0D1400FB6F894DEBF0FBECDBF0E945300DF
S11300D080E895E20E942104FE01E356FF4F80E48C
S11300E0DF011D928A95E9F781E6808382E68183A8
S11300F083E6828380E8838388E187AFBE016F5003
S11301007F4FCF010E94D00380E091E00E945B0406
S11301108E010F501F4F7801B4E1EB0EF11CF80172
S113012081918F010E9467040E151F05C1F78DE0B0
S113013091E00E945B048E01035A1F4F80E4D801B2
S11301401D928A95E9F781E6F801808382E681832E
S113015083E6828380E8838388E187AF259A84ECF1
S1130160C82E82E0D82EA12C94E0B92E20E2722E63
S11301708091BE02882321F01092BE020E949B044B
S11301808091C002882309F1F8941092C00285E49A
S113019091E00E945B0485E00E944004CE01019638
S11301A00E94070320E430E040E050E0B801CE01B3
S11301B001960E943603D601F5011D923197E9F7A5
S11301C01092C2021092C10278948091BF028823D7
S11301D079F21092BF028AE491E00E945B047E01EE
S11301E0FDEDEF0EF11C470184E1880E911CD7014F
S11301F08D917D010E946704E814F904C1F78AE037
S11302000E94400485B1872585B9B2CF2F923F92D1
S11302104F925F926F927F928F929F92AF92BF9212
S1130220CF92DF92EF92FF920F931F93CF93DF93BE
S1130230CDB7DEB7E0970FB6F894DEBF0FBECDBFE3
S113024098A78FA3AEE72A2EA1E03A2EAB01405C1B
S11302505F4F9101DB011C9111968C9190E0A0E01D
S1130260B0E0DC01992788276C017D01F12AFB01AC
S11302701381C12A1281D12AD901CD92DD92ED9246
S1130280FD929D016C5F7F4F4617570719F78EE764
S113029092E0EEE7F1E09F013496D901D496CD9037
S11302A0DD90ED90FC90D79790964D915D916D9176
S11302B07C9193974C255D256E257F251896CD90CE
S11302C0DD90ED90FC901B974C255D256E257F25D8
S11302D00D911D912D913C91402751276227732741
S11302E0440F551F661F771F411D44AF55AF66AFBE
S11302F077AF8E179F0779F6AFA1B8A54D905D90A3
S11303006D907C90139749865A866B867C861496EA
S11303104D905D906D907C9017974D865E866F86AC
S1130320788A18964D905D906D907C901B97498AC1
S11303305A8A6B8A7C8A1C964D905D906D907C9055
S11303401F974D8A5E8A6F8A788E50964D905D9085
S11303506D907C905397498E5A8E6B8E7C8E4D8E09
S11303605E8E6F8E78A20D891E892F89388DC9887B
S1130370DA88EB88FC888D849E84AF84B8884984AD
S11303805A846B847C8449825A826B827C8280E0AA
S113039090E0DC0184319105A105B105B8F4B70101
S11303A0A6014027512762277327482159216A2132
S11303B07B212A013B014026512662267326B30184
S11303C0A201475656486D47754A4AC0883291057E
S11303D0A105B10598F4B501A4014C255D256E2550
S11303E07F252A013B014026512662267326B3014C
S11303F0A2014F5554416642714932C08C33910574
S1130400A105B105D8F4B701A601402B512B622BED
S1130410732B482159216A217B212601370140226F
S1130420512262227322442A552A662A772AB3016A
S1130430A20144525344644E704712C0B501A40152
S11304404C255D256E257F252A013B01402651263A
S113045062267326B301A2014A525E436D49754375
S11304604DA75EA76FA778ABF101419051906190C1
S113047071901F0149A25AA26BA27CA249805A80A2
S11304806B807C804BE176946794579447944A95AB
S1130490D1F749815A816B817C81E5E0440F551F76
S11304A0661F771FEA95D1F7442A552A662A772AC8
S11304B049A15AA16BA17CA1440E551E661E771E4C
S11304C04DA55EA56FA578A9440D551D661D771D24
S11304D04D8C5E8C6F8C78A0440D551D661D771D68
S11304E024013501F2E07694679457944794FA9581
S11304F0D1F74D825E826F82788624013501EEE168
S1130500440C551C661C771CEA95D1F78D809E809F
S1130510AF80B884482859286A287B280196A11DF1
S1130520B11D89809A80AB80BC800D8F1E8F2F8F68
S113053038A380359105A105B10549F097018601DD
S11305407301620149835A836B837C8323CF89853A
S11305509A85AB85BC85480F591F6A1F7B1FAFA1C5
S1130560B8A54D935D936D937C9313974D855E85EC
S11305706F857889480D591D6A1D7B1D14964D930E
S11305805D936D937C93179789889A88AB88BC8810
S1130590480C591C6A1C7B1C18964D925D926D92F6
S11305A07C921B974D885E886F88788CC40CD51C10
S11305B0E61CF71C1C96CD92DD92ED92FC921F97DF
S11305C0498C5A8C6B8C7C8C040D151D261D371D93
S11305D050960D931D932D933C935397E0960FB62D
S11305E0F894DEBF0FBECDBFDF91CF911F910F9165
S11305F0FF90EF90DF90CF90BF90AF909F908F903F
S11306007F906F905F904F903F902F900895FC01E2
S11306108CE5DF011D928A95E9F781E093E2A5E478
S1130620B7E680839183A283B38389E89BEAADEC28
S1130630BFEE84839583A683B7838EEF9CEDAAEBEC
S1130640B8E980879187A287B38786E794E5A2E318
S1130650B0E184879587A687B78780EF91EEA2EDF6
S1130660B3EC808B918BA28BB38B08954F925F92E6
S11306706F927F92AF92BF92CF92DF92EF92FF92EE
S11306800F931F93CF93DF93EC01FB0169017A0170
S11306904C895D896E897F89DB01CA0123E0B695A7
S11306A0A795979587952A95D1F78F739927AA27A8
S11306B0BB2797018601689412F8000F111F221FAF
S11306C0331F1694D1F7400F511F621F731F4C8BB9
S11306D05D8B6E8B7F8B401751076207730760F445
S11306E0488D598D6A8D7B8D4F5F5F4F6F4F7F4F64
S11306F0488F598F6A8F7B8F088D198D2A8D3B8D7A
S1130700B701A601032E3DE1769567955795479568
S11307103A95D1F7302D400F511F621F731F488F38
S1130720598F6A8F7B8F8F01412C512C32015E01CE
S11307302CE1A20EB11C4C145D046E047F0409F17B
S1130740AC01BD014F5F5F4F6F4F7F4FF8012191A7
S11307508F01FE01E80FF91F248F40345105610514
S1130760710539F4B501CE010E94060140E050E064
S1130770BA01FFEF4F1A5F0A6F0A7F0ADB01CA0151
S1130780DACFDF91CF911F910F91FF90EF90DF901F
S1130790CF90BF90AF907F906F905F904F900895EF
S11307A0EF92FF920F931F93CF93DF93CDB7DEB7F2
S11307B0CC55D1090FB6F894DEBF0FBECDBF7C0176
S11307C08B01CE0101960E940703B701CE01019669
S11307D00E940601F8018FEF9FEF282F20952695A0
S11307E02695A1E0B0E0AC0FBD1F34E0239FA00D1F
S11307F0B11D11249C012370332743E0220F331FC2
S11308004A95E1F74D915D916D917C9104C0769587
S11308106795579547952A95D2F7419301978B3E53
S11308202FEF9207D1F6C45ADF4F0FB6F894DEBF0C
S11308300FBECDBFDF91CF911F910F91FF90EF902D
S11308400895A0E0B0E09C01AD0184E0220F331FC5
S1130850441F551F8A95D1F760E074E284EF90E05D
S11308600E941505215031093093C5002093C4001E
S113087088E98093C10086E08093C200789408954B
S11308809091C00095FFFCCF8093C60008950F930C
S11308901F93CF93DF93EC018C01060F171FC01732
S11308A0D10721F089910E944004F9CFDF91CF91C3
S11308B01F910F910895CF93DF93EC0189918823C1
S11308C019F00E944004FACFDF91CF9108951F934D
S11308D0CF93DF93CDB7DEB761970FB6F894DEBF41
S11308E00FBECDBF182F81E1E5E6F1E0DE011196E0
S11308F001900D928A95E1F7812F82958F70E1E046
S1130900F0E0EC0FFD1FE80FF11D80810E94400410
S11309101F70E1E0F0E0EC0FFD1FE10FF11D80819D
S113092061960FB6F894DEBF0FBECDBFDF91CF91B5
S11309301F910C9440048091C1029091C2020196CF
S11309409370892B99F0E091C102F091C2028091D9
S1130950C302EC53FD4F80838091C1029091C20287
S113096001969093C2028093C1020EC080E094E08D
S1130970E4ECF2E0DF019C011D9221503040E1F7EC
S11309801092C0021092BF026091C1027091C20223
S113099084EC92E00E9447048091C1029091C202CB
S11309A0029778F1E091C102F091C202EE53FD4F3B
S11309B08081833269F4E091C102F091C202ED5367
S11309C0FD4F8081813221F481E08093C00208953B
S11309D0E091C102F091C202EE53FD4F8081833257
S11309E081F4E091C102F091C202ED53FD4F808188
S11309F0843239F481E08093BF0295B180E2892783
S1130A0085B908951F920F920FB60F9211248F93F8
S1130A108091C6008093C30281E08093BE028F91CF
S1130A200F900FBE0F901F901895A1E21A2EAA1BCB
S1130A30BB1BFD010DC0AA1FBB1FEE1FFF1FA2178A
S1130A40B307E407F50720F0A21BB30BE40BF50B87
S1130A50661F771F881F991F1A9469F76095709510
S1130A60809590959B01AC01BD01CF010895DC01F7
S1130A70A40FB51F4150504048F0CB01840F951F7F
S1130A802E910E94480541505040D0F70895262FDA
S1130A90F999FECF92BD81BDF89A019700B4021670
S1130AA039F01FBA20BD0FB6F894FA9AF99A0FBE1E
S1090AB00895F894FFCF45
S1130AB6534841312861626329203D20000D0A45CF
S1130AC658504543544544203D204139393933452E
S1130AD63336343730363831364142413345323590
S1130AE63731373835304332364339434430443866
S1130AF639440D0A004445414400534841313A20E3
S1130B06000123456789ABCDEFFEDCBA98765432F3
S1130B1610F0E1D2C3303132333435363738394107
S1110B2642434445460044454255473A0000C8
S9030000FC
