S01500005348412D315F6F6E5F333238702E737265632D
S11300000C9434000C9451000C9451000C94510045
S11300100C9451000C9451000C9451000C94510018
S11300200C9451000C9451000C9451000C94510008
S11300300C9451000C9451000C9451000C945100F8
S11300400C9451000C9451000C94A0050C94510094
S11300500C9451000C9451000C9451000C945100D8
S11300600C9451000C94510011241FBECFEFD8E022
S1130070DEBFCDBF11E0A0E0B1E0E2EFFBE002C0E3
S113008005900D92AC33B107D9F725E0ACE3B1E0AC
S113009001C01D92A234B207E1F70E945B000C94E8
S11300A0F7050C94000044E150E060E070E08DE05E
S11300B091E00C94D505CF93DF93CDB7DEB7C0574D
S11300C0D1090FB6F894DEBF0FBECDBF0E94530016
S11300D080E895E20E94DC04259A82E4E82E81E01F
S11300E0F82EC12C94E0D92E80913C01882321F074
S11300F010923C010E94420580913E01882331F117
S1130100F89410923E0182E091E00E940205CE0133
S113011001960E94550323E030E040E050E062E0A5
S113012071E0CE0101960E948403BE01635A7F4FA1
S1130130CE0101960E941E04F701C6011192019797
S1130140E9F71092400110923F01789480913D01AB
S1130150882351F210923D0186E091E00E9402054D
S11301608E01035A1F4F580194E1A90EB11CF801E6
S113017081918F010E940E0580E20E94FB040A1502
S11301801B05A9F78AE00E94FB0495B180E2892748
S113019085B9AACF2F923F924F925F926F927F922E
S11301A08F929F92AF92BF92CF92DF92EF92FF9283
S11301B00F931F93CF93DF93CDB7DEB7CE56D140C5
S11301C00FB6F894DEBF0FBECDBFCB59DE4F998377
S11301D08883C556D140AE014F5F5F4F1A01AB0112
S11301E0405C5F4F9101DB011C9111968C9190E072
S11301F0A0E0B0E0DC01992788276C017D01F12A99
S1130200FB011381C12A1281D12AD901CD92DD9239
S1130210ED92FD929D016C5F7F4F4617570719F7CA
S1130220AE014F5F5E4F9101F901C4A8D5A8E6A8BD
S1130230F7A840A051A062A073A04C245D246E24B2
S11302407F24C084D184E284F3844C245D246E240E
S11302507F24D901CD90DD90ED90FD909D01460164
S11302605701880C991CAA1CBB1C84249524A62421
S1130270B724CC24F7FCC394DD24EE24FF24D3015B
S1130280C2018C259D25AE25BF25882A992AAA2A34
S1130290BB2AF90184AE95AEA6AEB7AE421753079A
S11302A019F6CB59DE4FA881B981C556D1404D907E
S11302B05D906D907C901397C75BDE4F48825982A6
S11302C06A827B82C954D14014964D905D906D90A2
S11302D07C901797C35BDE4F488259826A827B8287
S11302E0CD54D14018964D905D906D907C901B97A5
S11302F0CF5ADE4F488259826A827B82C155D140EF
S11303001C964D905D906D907C901F97CB5ADE4F5C
S1130310488259826A827B82C555D14050964D905D
S11303205D906D907C905397C75ADE4F48825982F6
S11303306A827B82C955D140C35ADE4F48825982B2
S11303406A827B82CD55D140CB5ADE4F0881198118
S11303502A813B81C555D140CF5ADE4FC880D98010
S1130360EA80FB80C155D140C35BDE4F8880998011
S1130370AA80BB80CD54D140C75BDE4F48805980F2
S11303806A807B80C954D140CF5BDE4F488259825A
S11303906A827B82C154D14080E090E0DC018431E8
S11303A09105A105B105B8F4B701A601402751276D
S11303B062277327482159216A217B212A013B01A5
S11303C04026512662267326B301A2014756564899
S11303D06D47754A4AC088329105A105B10598F464
S11303E0B501A4014C255D256E257F252A013B011D
S11303F04026512662267326B301A2014F5554416B
S11304006642714932C08C339105A105B105D8F417
S1130410B701A601402B512B622B732B4821592184
S11304206A217B2126013701402251226222732254
S1130430442A552A662A772AB301A2014452534416
S1130440644E704712C0B501A4014C255D256E258C
S11304507F252A013B014026512662267326B301DB
S1130460A2014A525E436D497543C559DE4F488324
S113047059836A837B83CB56D140F10141905190DB
S1130480619071901F01CF59DE4F488259826A8270
S11304907B82C156D140CF5BDE4F488059806A8051
S11304A07B80C154D1404BE1769467945794479430
S11304B04A95D1F7CF5BDE4F488159816A817B81B0
S11304C0C154D140E5E0440F551F661F771FEA95DC
S11304D0D1F7442A552A662A772ACF59DE4F488114
S11304E059816A817B81C156D140440E551E661ED6
S11304F0771EC559DE4F488159816A817B81CB566D
S1130500D140440D551D661D771DC35ADE4F4880EA
S113051059806A807B80CD55D140440D551D661DA0
S1130520771D24013501F2E076946794579447943B
S1130530FA95D1F7CB5BDE4F488259826A827B827F
S1130540C554D14024013501EEE1440C551C661C10
S1130550771CEA95D1F7CB5BDE4F88809980AA801F
S1130560BB80C554D140482859286A287B28019665
S1130570A11DB11DCF5BDE4F88809980AA80BB800E
S1130580C154D140C35ADE4F088319832A833B8365
S1130590CD55D14080359105A105B10569F097018C
S11305A0860173016201CF5BDE4F488359836A83FE
S11305B07B83C154D140F3CEC75BDE4F88819981E0
S11305C0AA81BB81C954D140480F591F6A1F7B1FA0
S11305D0CB59DE4FA881B981C556D1404D935D9367
S11305E06D937C931397C35BDE4F488159816A8175
S11305F07B81CD54D140480D591D6A1D7B1D149635
S11306004D935D936D937C931797CF5ADE4F8880FB
S11306109980AA80BB80C155D140480C591C6A1CE2
S11306207B1C18964D925D926D927C921B97CB5ACF
S1130630DE4F488059806A807B80C555D140C40C08
S1130640D51CE61CF71C1C96CD92DD92ED92FC9213
S11306501F97C75ADE4F488059806A807B80C955EE
S1130660D140040D151D261D371D50960D931D9365
S11306702D933C935397C259DE4F0FB6F894DEBFC7
S11306800FBECDBFDF91CF911F910F91FF90EF90DF
S1130690DF90CF90BF90AF909F908F907F906F909E
S11306A05F904F903F902F900895FC018CE5DF01FF
S11306B01D928A95E9F781E093E2A5E4B7E6808389
S11306C09183A283B38389E89BEAADECBFEE848374
S11306D09583A683B7838EEF9CEDAAEBB8E9808758
S11306E09187A287B38786E794E5A2E3B0E1848784
S11306F09587A687B78780EF91EEA2EDB3EC808B48
S1130700918BA28BB38B08954F925F926F927F92DD
S1130710AF92BF92CF92DF92EF92FF920F931F930B
S1130720CF93DF93EC01FB0169017A014C895D8968
S11307306E897F89DB01CA0123E0B695A795979559
S113074087952A95D1F78F739927AA27BB279701F5
S11307508601689412F8000F111F221F331F16948C
S1130760D1F7400F511F621F731F4C8B5D8B6E8B33
S11307707F8B401751076207730760F4488D598DCA
S11307806A8D7B8D4F5F5F4F6F4F7F4F488F598FBF
S11307906A8F7B8F088D198D2A8D3B8DB701A60139
S11307A0032E3DE176956795579547953A95D1F790
S11307B0302D400F511F621F731F488F598F6A8F4E
S11307C07B8F8F01412C512C32015E012CE1A20E52
S11307D0B11C4C145D046E047F0409F1AC01BD012D
S11307E04F5F5F4F6F4F7F4FF80121918F01FE01E3
S11307F0E80FF91F248F403451056105710539F460
S1130800B501CE010E94CA0040E050E0BA01FFEFFA
S11308104F1A5F0A6F0A7F0ADB01CA01DACFDF9140
S1130820CF911F910F91FF90EF90DF90CF90BF90E9
S1130830AF907F906F905F904F9008958F929F92AA
S1130840AF92BF92CF92DF92EF92FF920F931F93DA
S1130850CF93DF93CDB7DEB728970FB6F894DEBFFA
S11308600FBECDBF8C017B01DE0111962FEF3FEF50
S113087040E050E0BA016D0181E090E04430510560
S11308806105710510F080E090E0FC013596EE0FF3
S1130890FF1FEE0FFF1FE00FF11FC901837099279F
S11308A0880F991F880F991F880F991F8080918046
S11308B0A280B38004C0B694A794979487948A9531
S11308C0D2F78D924F5F5F4F6F4F7F4F21503109A9
S11308D0273F8FEF380781F621E030E040E050E019
S11308E061E271E0C8010E948403F801848995895A
S11308F0A689B789887F9170AA27BB27803C91403D
S1130900A105B10539F021E030E040E050E060E0BD
S113091071E0E8CF28E030E040E050E0B601C801E3
S11309200E948403F7012FEF3FEF40E050E0BA014B
S1130930DB01CA01B695A79597958795B695A795B6
S113094097958795880F991F880F991FD801A80F2D
S1130950B91F790183E0E822FF2483E0EE0CFF1C39
S11309608A95E1F78D919D910D90BC91A02D04C0C5
S1130970B695A79597958795EA94D2F781934F5F9B
S11309805F4F6F4F7F4F215031092B3E8FEF380758
S113099079F628960FB6F894DEBF0FBECDBFDF916F
S11309A0CF911F910F91FF90EF90DF90CF90BF9068
S11309B0AF909F908F900895A0E0B0E09C01AD01AE
S11309C084E0220F331F441F551F8A95D1F760E03E
S11309D074E284EF90E00E94B30521503109309312
S11309E0C5002093C40088E98093C10086E0809309
S11309F0C200789408959091C00095FFFCCF809335
S1130A00C6000895CF93DF93EC018991882319F0F0
S1130A100E94FB04FACFDF91CF9108951F93CF93E7
S1130A20DF93CDB7DEB761970FB6F894DEBF0FBE84
S1130A30CDBF182F81E1E3E2F1E0DE0111960190D0
S1130A400D928A95E1F7812F82958F70E1E0F0E0B5
S1130A50EC0FFD1FE80FF11D80810E94FB041F7045
S1130A60E1E0F0E0EC0FFD1FE10FF11D80816196E4
S1130A700FB6F894DEBF0FBECDBFDF91CF911F91AB
S1130A800C94FB0480913F01909140010196937076
S1130A90892B91F080913F01909140019C012F5F3F
S1130AA03F4F3093400120933F0120914101FC01CD
S1130AB0EE5BFE4F20830EC080E094E0E2E4F1E0C0
S1130AC0DF019C011D9221503040E1F710923E015C
S1130AD010923D0180913F0190914001029778F17D
S1130AE0E0913F01F0914001E05CFE4F8081833250
S1130AF069F4E0913F01F0914001EF5BFE4F80818A
S1130B00813221F481E080933E010895E0913F0118
S1130B10F0914001E05CFE4F8081833281F4E091EA
S1130B203F01F0914001EF5BFE4F8081843239F444
S1130B3081E080933D0195B180E2892785B90895CC
S1130B401F920F920FB60F9211248F938091C600BB
S1130B508093410181E080933C018F910F900FBEFF
S1130B600F901F901895A1E21A2EAA1BBB1BFD0122
S1130B700DC0AA1FBB1FEE1FFF1FA217B307E40778
S1130B80F50720F0A21BB30BE40BF50B661F771FD0
S1130B90881F991F1A9469F76095709580959095B0
S1130BA09B01AC01BD01CF010895DC01A40FB51F69
S1130BB04150504048F0CB01840F951F2E910E9464
S1130BC0E60541505040D0F70895262FF999FECFFD
S1130BD092BD81BDF89A019700B4021639F01FBA8C
S1130BE020BD0FB6F894FA9AF99A0FBE0895F894B6
S1050BF0FFCF31
S1130BF2000061626300534841313A2000012345F9
S1130C026789ABCDEFFEDCBA9876543210F0E1D2AC
S1130C12C3800030313233343536373839414243B8
S10F0C224445460044454255473A000052
S9030000FC
